:100000000C945C000C94A6010C946E000C946E0091
:100010000C946E000C946E000C946E000C946E00A8
:100020000C946E000C946E000C946E000C946E0098
:100030000C946E000C946E000C946E000C946E0088
:100040000C945C010C946E000C946E000C946E0089
:100050000C946E000C946E000C946E000C946E0068
:100060000C946E000C946E00000000080002010069
:100070000003040700000000000000000000000072
:10008000250028002B0000000000240027002A0083
:10009000040404040404040402020202020203032E
:1000A0000303030301020408102040800102040836
:1000B000102001020408102011241FBECFEFD8E049
:1000C000DEBFCDBF21E0A0E0B1E001C01D92A432AF
:1000D000B207E1F70E94A8020C94B4050C9400004A
:1000E00090E0FC01EC55FF4F249180579F4FFC019D
:1000F0008491882399F090E0880F991FFC01EA57BA
:10010000FF4FA591B491FC01E458FF4F8591949164
:100110008FB7F894EC91E22BEC938FBF089590E0A9
:10012000FC01E859FF4F2491FC01EC55FF4F34913D
:10013000FC01E057FF4FE491EE23C9F0222339F090
:10014000233001F1A8F4213019F1223029F1F0E037
:10015000EE0FFF1FE458FF4FA591B4918FB7F894AD
:10016000EC91611126C030953E233C938FBF0895DA
:100170002730A9F02830C9F0243049F78091800059
:100180008F7D03C0809180008F7780938000DFCFC8
:1001900084B58F7784BDDBCF84B58F7DFBCF809115
:1001A000B0008F778093B000D2CF8091B0008F7D68
:1001B000F9CF3E2BDACF1F93CF93DF93182FEB01AC
:1001C0000E947000209739F460E0812FDF91CF9179
:1001D0001F910C948F00CF3FD10511F461E0F5CF52
:1001E000E12FF0E0E859FF4FE491E33031F140F4C2
:1001F000E130B1F0E230E1F0C038D1057CF7E4CF76
:10020000E73029F1E83059F1E430B1F7809180000E
:10021000806280938000D0938B00C0938A0004C0DA
:1002200084B5806884BDC7BDDF91CF911F910895CB
:1002300084B5806284BDC8BDF7CF8091800080689E
:1002400080938000D0938900C0938800EDCF809187
:10025000B00080688093B000C093B300E5CF809178
:10026000B00080628093B000C093B400DDCF3FB790
:10027000F8948091200190912101A0912201B091E8
:10028000230126B5A89B05C02F3F19F00196A11D9B
:10029000B11D3FBFBA2FA92F982F8827BC01CD01D0
:1002A000620F711D811D911D42E0660F771F881F2F
:1002B000991F4A95D1F708951F920F920FB60F928A
:1002C00011242F933F938F939F93AF93BF9380916C
:1002D0001C0190911D01A0911E01B0911F01309150
:1002E0001B0123E0230F2D3758F50196A11DB11DE9
:1002F00020931B0180931C0190931D01A0931E016C
:10030000B0931F018091200190912101A0912201C1
:10031000B09123010196A11DB11D809320019093FE
:100320002101A0932201B0932301BF91AF919F912E
:100330008F913F912F910F900FBE0F901F901895A6
:1003400026E8230F0296A11DB11DD2CF1F920F9256
:100350000FB60F9211240F931F932F933F934F9338
:100360005F936F937F938F939F93AF93BF93CF933D
:10037000EF93FF934A9B40C02D98C1E00E94370144
:100380008B019C018091000190910101A0910201DB
:10039000B0910301B901A801481B590B6A0B7B0BF3
:1003A000CA010093000110930101209302013093D0
:1003B000030120910401C1118BC0413066E456074E
:1003C00010F421111CC010920E0181E080930401F1
:1003D000FF91EF91CF91BF91AF919F918F917F91BD
:1003E0006F915F914F913F912F911F910F910F90BE
:1003F0000FBE0F901F9018952D9AC0E0BFCF2230EE
:1004000069F59C0120523D40213C3840C0F41092D7
:10041000050110920A0110920B0110920C0110922A
:100420000D0181E090E0A0E0B0E0809306019093A0
:100430000701A0930801B093090183E0C7CF805959
:1004400096408136944008F07FC08091050180324B
:1004500008F47AC081E080930E01EFCF243009F0D8
:1004600073C088519140813C984008F06DC08091E4
:10047000060190910701A0910801B0910901403651
:100480005440A0F040910A0150910B0160910C0181
:1004900070910D01482B592B6A2B7B2B40930A013D
:1004A00050930B0160930C0170930D01880F991FFD
:1004B000AA1FBB1F8093060190930701A093080118
:1004C000B0930901809105018F5F80930501B5CF3D
:1004D000213039F480549A4181389141A8F582E065
:1004E00075CF233089F5885191408133924060F572
:1004F00080910501803220F480910E0180FF26C09A
:1005000080910B01809590910A01981719F084E071
:1005100080930E0180910D01809590910C019817A8
:1005200019F084E080930E01789480910E019091EF
:100530000C0120910A0131E030931A012093170138
:10054000909318018093190180E040CF84E03ECF62
:10055000789484B5826084BD84B5816084BD85B59E
:10056000826085BD85B5816085BD80916E008160AA
:1005700080936E0010928100809181008260809350
:100580008100809181008160809381008091800052
:100590008160809380008091B10084608093B1007D
:1005A0008091B00081608093B00080917A00846077
:1005B00080937A0080917A00826080937A008091A3
:1005C0007A00816080937A0080917A0080688093BD
:1005D0007A001092C1005298259A8091690081603A
:1005E00080936900E09AE89A80E00E94700081E0C0
:1005F0000E94700060E080E00E948F0060E081E077
:100600000E948F0000E010E0CFEFD0E080911A014F
:10061000882309F468C010921A0180911701811192
:1006200062C0209118018091150190911601253426
:1006300061F420911901211108C0181619069CF0C7
:10064000D0931601C093150112C0209118012931D1
:1006500009F074C08F3F910554F4419690931601B0
:100660008093150104C0109216011092150140905C
:10067000110150901201609013017090140160916B
:10068000150170911601072E000C880B990B0E9422
:1006900092044B015C0120E030E040E05FE3C301E5
:1006A000B2010E94E903A50194010E9447050E943E
:1006B0005A046B017093100160930F01A301920122
:1006C00060E070E080E09FE30E94E803A5019401F0
:1006D0000E9447050E945A0481E00E94DB00B60197
:1006E00080E00E94DB000E9437014B015C0184E640
:1006F000C82ED12CE12CF12C0E9437016819790900
:100700008A099B09683E734081059105A8F321E0A1
:10071000C21AD108E108F10888EE880E83E0981E1D
:10072000A11CB11CC114D104E104F10429F7011585
:10073000110509F46BCF0E94000068CF20911801C9
:10074000263131F4181619060CF091CF419786CF57
:10075000C0901101D0901201E0901301F0901401AB
:10076000809118018531D9F420E030E040E05FE36A
:10077000C701B6010E94550487FF79CF2DEC3CECF0
:100780004CEC5DE3C701B6010E94E90360931101DF
:1007900070931201809313019093140168CF80919C
:1007A0001801873009F063CF20E030E040E05FEBD4
:1007B000C701B6010E94420518160CF058CF2DEC67
:1007C0003CEC4CEC5DE3C701B6010E94E803DECFD0
:1007D0005058BB27AA270E9400040C9408050E94C9
:1007E000FA0438F00E94010520F039F49F3F19F413
:1007F00026F40C94F7040EF4E095E7FB0C94F10456
:10080000E92F0E94190558F3BA1762077307840786
:10081000950720F079F4A6F50C943B050EF4E095CD
:100820000B2EBA2FA02D0B01B90190010C01CA01AA
:10083000A0011124FF27591B99F0593F50F4503E55
:1008400068F11A16F040A22F232F342F4427585F47
:10085000F3CF469537952795A795F0405395C9F75F
:100860007EF41F16BA0B620B730B840BBAF0915017
:10087000A1F0FF0FBB1F661F771F881FC2F70EC0B6
:10088000BA0F621F731F841F48F487957795679589
:10089000B795F7959E3F08F0B0CF9395880F08F075
:1008A0009927EE0F9795879508950E94CD0408F437
:1008B00081E008950E9461046894B1110C943C0594
:1008C00008950E94210588F09F5798F0B92F992725
:1008D000B751B0F0E1F0660F771F881F991F1AF02B
:1008E000BA95C9F714C0B13091F00E943B05B1E050
:1008F00008950C943B05672F782F8827B85F39F04F
:10090000B93FCCF3869577956795B395D9F73EF4C3
:1009100090958095709561957F4F8F4F9F4F08956B
:10092000E89409C097FB3EF4909580957095619589
:100930007F4F8F4F9F4F9923A9F0F92F96E9BB273F
:100940009395F695879577956795B795F111F8CFBB
:10095000FAF4BB0F11F460FF1BC06F5F7F4F8F4F26
:100960009F4F16C0882311F096E911C0772321F01C
:100970009EE8872F762F05C0662371F096E8862FB4
:1009800070E060E02AF09A95660F771F881FDAF70B
:10099000880F9695879597F90895990F0008550F38
:1009A000AA0BE0E8FEEF16161706E807F907C0F0F5
:1009B00012161306E407F50798F0621B730B840BFD
:1009C000950B39F40A2661F0232B242B252B21F4D7
:1009D00008950A2609F4A140A6958FEF811D811D77
:1009E000089597F99F6780E870E060E008959FEFB1
:1009F00080EC089500240A941616170618060906B6
:100A0000089500240A941216130614060506089584
:100A1000092E0394000C11F4882352F0BB0F40F40C
:100A2000BF2B11F460FF04C06F5F7F4F8F4F9F4F4C
:100A3000089557FD9058440F551F59F05F3F71F0CE
:100A40004795880F97FB991F61F09F3F79F0879535
:100A50000895121613061406551FF2CF4695F1DFBE
:100A600008C0161617061806991FF1CF869571054E
:100A7000610508940895E894BB2766277727CB0182
:100A800097F908950E94CD0408F48FEF08950E940D
:100A90005A050C9408050E94FA0438F00E940105DA
:100AA00020F0952311F00C94F1040C94F704112418
:100AB0000C943C050E94190570F3959FC1F3950FA6
:100AC00050E0551F629FF001729FBB27F00DB11DD2
:100AD000639FAA27F00DB11DAA1F649F6627B00D62
:100AE000A11D661F829F2227B00DA11D621F739F4B
:100AF000B00DA11D621F839FA00D611D221F749F59
:100B00003327A00D611D231F849F600D211D822F9F
:100B1000762F6A2F11249F5750409AF0F1F08823C6
:100B20004AF0EE0FFF1FBB1F661F771F881F9150F3
:100B30005040A9F79E3F510580F00C94F1040C94AD
:100B40003C055F3FE4F3983ED4F38695779567952F
:100B5000B795F795E7959F5FC1F7FE2B880F911D1D
:0C0B60009695879597F90895F894FFCFBB
:00000001FF
