:100000001DC02CC033C12AC029C0E6C027C026C0ED
:1000100025C024C023C022C021C020C01FC00103AE
:10002000000004000000000038000000000037005D
:1000300002020202020201020408102011241FBE63
:10004000CFE5D2E0DEBFCDBF20E0A0E6B0E001C04A
:100050001D92AA38B207E1F70AD2A7C5D1CF3FB7A0
:10006000F8948091860090918700A0918800B091CB
:10007000890022B708B601FE05C02F3F19F001968E
:10008000A11DB11D3FBFBA2FA92F982F8827BC01F2
:10009000CD01620F711D811D911D43E0660F771F19
:1000A000881F991F4A95D1F7089590E0FC01EA5CFA
:1000B000FF4F2491805D9F4FFC018491882399F02C
:1000C00090E0880F991FFC01E65DFF4FA591B49168
:1000D000FC01EC5DFF4F859194918FB7F894EC9102
:1000E000E22BEC938FBF089590E0FC01E25EFF4F9E
:1000F0003491FC01EA5CFF4F2491FC01E05DFF4F6D
:10010000E491EE23B9F0332329F03130A1F48AB51C
:100110008F778ABDF0E0EE0FFF1FEC5DFF4FA591DA
:10012000B4918FB7611118C0F894EC9120952E23EB
:100130002C938FBF0895323019F48AB58F7DE9CFA3
:10014000333021F480B78F7D80BFE4CF343011F796
:100150008CB58F7D8CBDDECFF894EC912E2BE8CF43
:100160001F93CF93DF93182FEB019FDF1C161D0603
:1001700034F060E0812FDF91CF911F91B5CFCF3F59
:10018000D10514F061E0F6CFE12FF0E0E25EFF4F21
:10019000E491E13041F48AB580688ABDC9BDDF9140
:1001A000CF911F910895E23029F48AB580628ABD0B
:1001B000C8BDF5CFE33029F480B7806280BFCEBDE3
:1001C000EECFE43029F48CB580628CBDCBBDE7CF97
:1001D000C038D105BCF6CDCF1F920F920FB60F924B
:1001E00011242F933F938F939F93AF93BF9380914D
:1001F000820090918300A0918400B091850030919D
:10020000810026E0230F2D3768F129E8230F03969C
:10021000A11DB11D209381008093820090938300E3
:10022000A0938400B0938500809186009091870010
:10023000A0918800B09189000196A11DB11D809305
:10024000860090938700A0938800B0938900BF91A7
:10025000AF919F918F913F912F910F900FBE0F9073
:100260001F9018950296A11DB11DD4CF1F920F9219
:100270000FB60F9211240F931F932F933F934F9319
:100280005F936F937F938F939F93AF93BF93CF931E
:10029000EF93FF93B29B3FC0C198C1E0E0DE8B01BA
:1002A0009C018091600090916100A0916200B091EA
:1002B0006300B901A801481B590B6A0B7B0BCA01EB
:1002C00000936000109361002093620030936300FC
:1002D00020916400C1118BC0413066E4560710F4D0
:1002E00021111CC010926E0081E080936400FF9188
:1002F000EF91CF91BF91AF919F918F917F916F912E
:100300005F914F913F912F911F910F910F900FBED1
:100310000F901F901895C19AC0E0C0CF223069F5A8
:100320009C0120523D40213C3840C0F410926500B1
:1003300010926A0010926B0010926C0010926D0087
:1003400081E090E0A0E0B0E08093660090936700C9
:10035000A0936800B093690083E0C7CF80599640AE
:100360008136944008F07FC080916500803208F4A7
:100370007AC081E080936E00EFCF243009F073C023
:1003800088519140813C984008F06DC08091660092
:1003900090916700A0916800B09169004036544088
:1003A000A0F040916A0050916B0060916C007091D8
:1003B0006D00482B592B6A2B7B2B40936A0050937E
:1003C0006B0060936C0070936D00880F991FAA1FDB
:1003D000BB1F8093660090936700A0936800B09362
:1003E0006900809165008F5F80936500B5CF2130F3
:1003F00039F480549A4181389141A8F582E075CF53
:10040000233089F5885191408133924060F5809185
:100410006500803220F480916E0080FF26C08091BC
:100420006B00809590916A00981719F084E0809392
:100430006E0080916D00809590916C00981719F076
:1004400084E080936E00789480916E0090916C00AF
:1004500020916A0031E030937800209375009093EA
:1004600076008093770080E040CF84E03ECF83E049
:100470008ABD83BF789489B7826089BF80E48CBDD0
:100480008FEF8DBD87EC80BF86E886B9BA98B99AA0
:1004900084E085BB8AB780628ABF8BB780628BBFDE
:1004A00084E003DE81E001DE60E084E01DDE60E0E8
:1004B00081E01ADE01E01CE3DEE1CAE022242A9496
:1004C000312C80918000882369F18FB7F894C09017
:1004D0008200D0908300E0908400F09085008FBF70
:1004E00080917C0090917D00A0917E00B0917F0072
:1004F000C81AD90AEA0AFB0A80917B0090E06CE3F3
:1005000070E042D368EE73E03FD3092E000CAA0BD3
:10051000BB0BC816D906EA06FB0620F010927A003B
:100520001092790080917800882361F11092780010
:1005300080917500811126C080917600853421F468
:1005400080917700882391F080917600893109F0BD
:100550006FC08091790090917A008F3F910594F45B
:10056000419690937A00809379000CC08091790035
:1005700090917A00181619060CF055C010927A0066
:10058000109279004090710050907200609073005A
:10059000709074006091790070917A00072E000CC1
:1005A000880B990B3CD14B015C0120E030E040E02E
:1005B0005FE3C301B2014FD2A50194018FD1AFD245
:1005C0006B017093700060936F00A301920160E073
:1005D00070E080E09FE33ED2A50194017FD19FD2DD
:1005E00081E0BEDDB60184E0BBDD39DD7B0184E660
:1005F000882E912CA12CB12C32DD6E197F09683E1A
:10060000734008F4FFC081149104A104B10409F4FB
:1006100058CF91E0891A9108A108B108A8E1EA1A17
:10062000ACEFFA0AE9CF30927A0020927900AACF93
:1006300080917600863151F48091790090917A0012
:10064000181619060CF09ECF41978BCF809176003B
:10065000853109F5C0907100D0907200E090730070
:10066000F090740020E030E040E05FE3C701B601A5
:10067000D0D087FF87CF2DEC3CEC4CEC5DE3C7017D
:10068000B601E9D16093710070937200809373009A
:100690009093740077CF809176008730D1F4C0902A
:1006A0007100D0907200E0907300F090740020E030
:1006B00030E040E05FEBC701B60162D218160CF0E3
:1006C00061CF2DEC3CEC4CEC5DE3C701B601C2D12F
:1006D000D9CF809176008C3029F4809177008823DF
:1006E00009F457C080917600883129F48091770011
:1006F000882309F451C0809176008E3529F48091C9
:100700007700882309F44FC080917600883029F45F
:1007100080917700882309F449C0809176008A355A
:1007200029F480917700882309F44DC080917600E8
:100730008C3129F480917700882309F449C0809195
:100740007600823409F04DC08091770081111ACF74
:10075000009380002FB7F8948091820090918300DD
:10076000A0918400B09185002FBF80937C0090936E
:100770007D00A0937E00B0937F00809176008A3444
:10078000F1F18235C9F1823409F0FCCEC0937B00CF
:10079000F9CE80E490E0E5CEAFE7B0E0B0937A0028
:1007A000A0937900EFCE8FEB90E0DBCE80E090E07D
:1007B000A0E0BFEB8093710090937200A093730050
:1007C000B0937400DFCE80E090E0A0E0BFE3F2CF12
:1007D00010927100109272001092730010927400C7
:1007E000D1CE80917600823509F4AECF809176002B
:1007F0008A3409F0C7CEA8CFD0937B00C3CE109324
:100800007B00C0CE81149104A104B10409F0F4CEA0
:1008100058CE40D008F481E00895E89409C097FBD1
:100820003EF490958095709561957F4F8F4F9F4FC7
:100830009923A9F0F92F96E9BB279395F69587950B
:1008400077956795B795F111F8CFFAF4BB0F11F4CE
:1008500060FF1BC06F5F7F4F8F4F9F4F16C0882375
:1008600011F096E911C0772321F09EE8872F762FAB
:1008700005C0662371F096E8862F70E060E02AF0EC
:100880009A95660F771F881FDAF7880F96958795D8
:1008900097F90895990F0008550FAA0BE0E8FEEFAD
:1008A00016161706E807F907C0F012161306E40734
:1008B000F50798F0621B730B840B950B39F40A262D
:1008C00061F0232B242B252B21F408950A2609F40B
:1008D000A140A6958FEF811D811D08950AD080C08B
:1008E00071D028F076D018F0952309F062C067C067
:1008F000ABC087D0A8F39923D9F35523C9F3950F3B
:1009000050E0551FAA27EE27FF27BB270024089495
:10091000679520F4E20FF31FB41F0A1E220F331F46
:10092000441FAA1F6695A9F7779530F4F30FB41FFB
:100930000A1E121E08F46395330F441FAA1F221FBC
:10094000769599F7879520F4B40F0A1E121E631F3F
:10095000440FAA1F221F331F8695A9F7862F712DDA
:10096000602D11249F5750408AF0E1F088234AF00F
:10097000EE0FFF1FBB1F661F771F881F915050404F
:10098000A9F79E3F510570F014C05EC05F3FECF3C5
:10099000983EDCF3869577956795B795F795E7953B
:1009A0009F5FC1F7FE2B880F911D9695879597F94C
:1009B000089597F99F6780E870E060E008959FEFE1
:1009C00080EC089500240A941616170618060906E6
:1009D000089500240A9412161306140605060895B5
:1009E000092E0394000C11F4882352F0BB0F40F43D
:1009F000BF2B11F460FF04C06F5F7F4F8F4F9F4F7D
:100A0000089557FD9058440F551F59F05F3F71F0FE
:100A10004795880F97FB991F61F09F3F79F0879565
:100A20000895121613061406551FF2CF4695F1DFEE
:100A300008C0161617061806991FF1CF869571057E
:100A4000610508940895E894BB2766277727CB01B2
:100A500097F908955058BB27AA270ED0C1CFB2DF0F
:100A600030F0B7DF20F031F49F3F11F41EF4A7CF30
:100A70000EF4E095E7FB9DCFE92FC3DF80F3BA17B3
:100A8000620773078407950718F071F49EF5DBCFB2
:100A90000EF4E0950B2EBA2FA02D0B01B901900199
:100AA0000C01CA01A0011124FF27591B99F0593FDD
:100AB00050F4503E68F11A16F040A22F232F342F25
:100AC0004427585FF3CF469537952795A795F04073
:100AD0005395C9F77EF41F16BA0B620B730B840B88
:100AE000BAF09150A1F0FF0FBB1F661F771F881F40
:100AF000C2F70EC0BA0F621F731F841F48F4879598
:100B000077956795B795F7959E3F08F0B3CF939586
:100B1000880F08F09927EE0F97958795089504D0D0
:100B20006894B11191CF089574DF88F09F5790F0C9
:100B3000B92F9927B751A0F0D1F0660F771F881F02
:100B4000991F1AF0BA95C9F712C0B13081F07BDF56
:100B5000B1E0089578CF672F782F8827B85F39F0F4
:100B6000B93FCCF3869577956795B395D9F73EF461
:100B700090958095709561957F4F8F4F9F4F089509
:100B800089DE08F48FEF08950024552704C0080E6D
:100B9000591F880F991F009729F076956795B8F32C
:0E0BA0007105B9F7802D952F0895F894FFCFB9
:00000001FF
