:100000001DC02CC033C12AC029C0E6C027C026C0ED
:1000100025C024C023C022C021C020C01FC00103AE
:10002000000004000000000038000000000037005D
:1000300002020202020201020408102011241FBE63
:10004000CFE5D2E0DEBFCDBF20E0A0E6B0E001C04A
:100050001D92AB38B207E1F70AD2C9C5D1CF3FB77D
:10006000F8948091870090918800A0918900B091C8
:100070008A0022B708B601FE05C02F3F19F001968D
:10008000A11DB11D3FBFBA2FA92F982F8827BC01F2
:10009000CD01620F711D811D911D43E0660F771F19
:1000A000881F991F4A95D1F7089590E0FC01EA5CFA
:1000B000FF4F2491805D9F4FFC018491882399F02C
:1000C00090E0880F991FFC01E65DFF4FA591B49168
:1000D000FC01EC5DFF4F859194918FB7F894EC9102
:1000E000E22BEC938FBF089590E0FC01E25EFF4F9E
:1000F0003491FC01EA5CFF4F2491FC01E05DFF4F6D
:10010000E491EE23B9F0332329F03130A1F48AB51C
:100110008F778ABDF0E0EE0FFF1FEC5DFF4FA591DA
:10012000B4918FB7611118C0F894EC9120952E23EB
:100130002C938FBF0895323019F48AB58F7DE9CFA3
:10014000333021F480B78F7D80BFE4CF343011F796
:100150008CB58F7D8CBDDECFF894EC912E2BE8CF43
:100160001F93CF93DF93182FEB019FDF1C161D0603
:1001700034F060E0812FDF91CF911F91B5CFCF3F59
:10018000D10514F061E0F6CFE12FF0E0E25EFF4F21
:10019000E491E13041F48AB580688ABDC9BDDF9140
:1001A000CF911F910895E23029F48AB580628ABD0B
:1001B000C8BDF5CFE33029F480B7806280BFCEBDE3
:1001C000EECFE43029F48CB580628CBDCBBDE7CF97
:1001D000C038D105BCF6CDCF1F920F920FB60F924B
:1001E00011242F933F938F939F93AF93BF9380914D
:1001F000830090918400A0918500B0918600309199
:10020000820026E0230F2D3768F129E8230F03969B
:10021000A11DB11D209382008093830090938400E0
:10022000A0938500B093860080918700909188000C
:10023000A0918900B0918A000196A11DB11D809303
:10024000870090938800A0938900B0938A00BF91A3
:10025000AF919F918F913F912F910F900FBE0F9073
:100260001F9018950296A11DB11DD4CF1F920F9219
:100270000FB60F9211240F931F932F933F934F9319
:100280005F936F937F938F939F93AF93BF93CF931E
:10029000EF93FF93B29B3FC0C198C1E0E0DE8B01BA
:1002A0009C018091600090916100A0916200B091EA
:1002B0006300B901A801481B590B6A0B7B0BCA01EB
:1002C00000936000109361002093620030936300FC
:1002D00020916400C1118BC0413066E4560710F4D0
:1002E00021111CC010926E0081E080936400FF9188
:1002F000EF91CF91BF91AF919F918F917F916F912E
:100300005F914F913F912F911F910F910F900FBED1
:100310000F901F901895C19AC0E0C0CF223069F5A8
:100320009C0120523D40213C3840C0F410926500B1
:1003300010926A0010926B0010926C0010926D0087
:1003400081E090E0A0E0B0E08093660090936700C9
:10035000A0936800B093690083E0C7CF80599640AE
:100360008136944008F07FC080916500803208F4A7
:100370007AC081E080936E00EFCF243009F073C023
:1003800088519140813C984008F06DC08091660092
:1003900090916700A0916800B09169004036544088
:1003A000A0F040916A0050916B0060916C007091D8
:1003B0006D00482B592B6A2B7B2B40936A0050937E
:1003C0006B0060936C0070936D00880F991FAA1FDB
:1003D000BB1F8093660090936700A0936800B09362
:1003E0006900809165008F5F80936500B5CF2130F3
:1003F00039F480549A4181389141A8F582E075CF53
:10040000233089F5885191408133924060F5809185
:100410006500803220F480916E0080FF26C08091BC
:100420006B00809590916A00981719F084E0809392
:100430006E0080916D00809590916C00981719F076
:1004400084E080936E00789480916E0090916C00AF
:1004500020916A0031E030937900209376009093E8
:1004600077008093780080E040CF84E03ECF83E047
:100470008ABD83BF789489B7826089BF80E48CBDD0
:100480008FEF8DBD87EC80BF86E886B9BA98B99AA0
:1004900084E085BB8AB780628ABF8BB780628BBFDE
:1004A00084E003DE80E001DE60E084E01DDE60E0E9
:1004B00080E01ADEC1E00CE31EE1DAE022242A9497
:1004C000312C80918100882369F18FB7F894C09016
:1004D0008300D0908400E0908500F09086008FBF6C
:1004E00080917D0090917E00A0917F00B09180006E
:1004F000C81AD90AEA0AFB0A80917C0090E06CE3F2
:1005000070E064D368EE73E061D3092E000CAA0B8F
:10051000BB0BC816D906EA06FB0620F010927B003A
:1005200010927A0080917900882359F21092790014
:100530008091760081112DC0809177008534A1F4DF
:1005400080917800811110C01092810080917A0012
:1005500090917B00181619060CF06CC010927B006D
:1005600010927A001092750080917500882389F0AE
:1005700080917700893009F064C080917A00909171
:100580007B008F3F91052CF4419690937B008093E4
:100590007A004090710050907200609073007090EB
:1005A000740060917A0070917B00072E000C880B1C
:1005B000990B57D14B015C0120E030E040E05FE354
:1005C000C301B2016AD2A5019401AAD1CAD26B01BA
:1005D0007093700060936F00A301920160E070E07F
:1005E00080E09FE359D2A50194019AD1BAD280E06C
:1005F000B7DDB60184E0B4DD32DD5B0184E6C82EF0
:10060000D12CE12CF12C2BDD6A197B09683E73405B
:1006100008F41AC1C114D104E104F10409F451CF62
:10062000B1E0CB1AD108E108F10888E1A81A8CEFF3
:10063000B80AE9CF30927B0020927A00C09375000F
:1006400093CF80917700873051F480917A00909118
:100650007B00181619060CF09CCF419796CF80911D
:100660007700893109F5C0907100D0907200E09058
:100670007300F090740020E030E040E05FE3C701D9
:10068000B601E9D087FF85CF2DEC3CEC4CEC5DE367
:10069000C701B60102D2609371007093720080931B
:1006A00073009093740075CF809177008034D1F4FB
:1006B000C0907100D0907200E0907300F0907400D0
:1006C00020E030E040E05FEBC701B6017BD21816B6
:1006D0000CF05FCF2DEC3CEC4CEC5DE3C701B601B8
:1006E000DBD1D9CF809177008C3029F480917800CC
:1006F000882309F459C080917700883129F48091CA
:100700007800882309F453C0809177008E3529F44E
:1007100080917800882309F451C080917700883057
:1007200029F480917800882309F44BC080917700E8
:100730008A3529F480917800882309F44FC080918C
:1007400077008C3129F480917800882309F44BC01C
:1007500080917700823409F04FC080917800811138
:1007600055C0C09381002FB7F89480918300909179
:100770008400A0918500B09186002FBF80937D00FA
:1007800090937E00A0937F00B093800080917700CB
:100790008A3409F456C0823509F450C0823409F015
:1007A000F8CED0937C00F5CE80E490E0EECEAFE7BB
:1007B000B0E0B0937B00A0937A00EBCE8FEB90E09B
:1007C000E4CE80E090E0A0E0BFEB809371009093D6
:1007D0007200A0937300B0937400DBCE80E090E0D1
:1007E000A0E0BFE3F2CF109271001092720010925D
:1007F000730010927400CDCE80917700823509F499
:10080000ACCF809177008A3409F4A7CF809177002C
:10081000873409F0BECE809178008111BACE8DEC7C
:100820009CECACECBEEB8093710090937200A093B3
:100830007300B0937400A2EDB0E0BBCF10937C00C6
:10084000A8CE00937C00A5CEC114D104E104F1042C
:1008500009F0D9CE36CE40D008F481E00895E8946E
:1008600009C097FB3EF490958095709561957F4FF8
:100870008F4F9F4F9923A9F0F92F96E9BB279395A6
:10088000F695879577956795B795F111F8CFFAF4B6
:10089000BB0F11F460FF1BC06F5F7F4F8F4F9F4FE7
:1008A00016C0882311F096E911C0772321F09EE845
:1008B000872F762F05C0662371F096E8862F70E0AB
:1008C00060E02AF09A95660F771F881FDAF7880F85
:1008D0009695879597F90895990F0008550FAA0BDB
:1008E000E0E8FEEF16161706E807F907C0F0121643
:1008F0001306E407F50798F0621B730B840B950B46
:1009000039F40A2661F0232B242B252B21F408959A
:100910000A2609F4A140A6958FEF811D811D089537
:100920000AD080C071D028F076D018F0952309F055
:1009300062C067C0ABC087D0A8F39923D9F3552311
:10094000C9F3950F50E0551FAA27EE27FF27BB27B5
:1009500000240894679520F4E20FF31FB41F0A1EC9
:10096000220F331F441FAA1F6695A9F7779530F40D
:10097000F30FB41F0A1E121E08F46395330F441FB1
:10098000AA1F221F769599F7879520F4B40F0A1EA7
:10099000121E631F440FAA1F221F331F8695A9F73B
:1009A000862F712D602D11249F5750408AF0E1F061
:1009B00088234AF0EE0FFF1FBB1F661F771F881F9B
:1009C00091505040A9F79E3F510570F014C05EC091
:1009D0005F3FECF3983EDCF3869577956795B79586
:1009E000F795E7959F5FC1F7FE2B880F911D9695B0
:1009F000879597F9089597F99F6780E870E060E020
:100A000008959FEF80EC089500240A9416161706A7
:100A100018060906089500240A94121613061406EF
:100A200005060895092E0394000C11F4882352F052
:100A3000BB0F40F4BF2B11F460FF04C06F5F7F4F0A
:100A40008F4F9F4F089557FD9058440F551F59F0F1
:100A50005F3F71F04795880F97FB991F61F09F3FAB
:100A600079F087950895121613061406551FF2CFD4
:100A70004695F1DF08C0161617061806991FF1CF24
:100A800086957105610508940895E894BB2766274B
:100A90007727CB0197F908955058BB27AA270ED086
:100AA000C1CFB2DF30F0B7DF20F031F49F3F11F457
:100AB0001EF4A7CF0EF4E095E7FB9DCFE92FC3DF2F
:100AC00080F3BA17620773078407950718F071F46B
:100AD0009EF5DBCF0EF4E0950B2EBA2FA02D0B0167
:100AE000B90190010C01CA01A0011124FF27591B73
:100AF00099F0593F50F4503E68F11A16F040A22F79
:100B0000232F342F4427585FF3CF469537952795E9
:100B1000A795F0405395C9F77EF41F16BA0B620BE8
:100B2000730B840BBAF09150A1F0FF0FBB1F661F2F
:100B3000771F881FC2F70EC0BA0F621F731F841F72
:100B400048F4879577956795B795F7959E3F08F098
:100B5000B3CF9395880F08F09927EE0F9795879557
:100B6000089504D06894B11191CF089574DF88F08E
:100B70009F5790F0B92F9927B751A0F0D1F0660F89
:100B8000771F881F991F1AF0BA95C9F712C0B130A4
:100B900081F07BDFB1E0089578CF672F782F882729
:100BA000B85F39F0B93FCCF3869577956795B395E3
:100BB000D9F73EF490958095709561957F4F8F4F52
:100BC0009F4F089589DE08F48FEF0895002455277C
:100BD00004C0080E591F880F991F009729F07695B9
:100BE0006795B8F37105B9F7802D952F0895F8949E
:020BF000FFCF35
:00000001FF
